:020000040800F2
:1000000010140020DD020008634800083D3C000891
:1000100061480008911900085D55000800000000C3
:10002000000000000000000000000000794D000802
:10003000E319000800000000A14900087B4D0008FA
:10004000F7020008F7020008F7020008F7020008AC
:10005000F7020008F7020008E5190008F702000897
:10006000F7020008F7020008F7020008F70200088C
:10007000F7020008F7020008F702000895190008C7
:10008000A1190008F7020008F7020008F7020008AB
:10009000F7020008F7020008F7020008F319000849
:1000A000F7020008F7020008F7020008F70200084C
:1000B000F7020008F7020008F7020008F70200083C
:1000C000F7020008F7020008F7020008F70200082C
:1000D000F70200080555000849550008F702000816
:1000E000EB190008F7020008F7020008F702000801
:1000F000F7020008F7020008F7020008F7020008FC
:10010000F7020008F7020008F7020008F7020008EB
:10011000F7020008F7020008F7020008F7020008DB
:10012000F7020008F7020008F7020008F7020008CB
:10013000F7020008F7020008F7020008F7020008BB
:10014000F7020008F7020008F7020008F7020008AB
:10015000F7020008AD190008C53F0008F7020008C3
:10016000F7020008F7020008F7020008F70200088B
:10017000F7020008F7020008F7020008000000007C
:10018000F7020008F702000800F002F800F096F805
:100190000AA090E8000C82448344AAF10107DA45E2
:1001A00001D100F08BF8AFF2090EBAE80F0013F09E
:1001B000010F18BFFB1A43F001031847E068000065
:1001C00000690000103A24BF78C878C1FAD85207F5
:1001D00024BF30C830C144BF04680C6070470000C1
:1001E0000023002400250026103A28BF78C1FBD840
:1001F000520728BF30C148BF0B6070476E2900F01E
:100200001583702900F06384662906F0CC82652985
:1002100006F0C982672906F0C682612906F0C58208
:1002200003681B0A28BF41F08001692900F0C282DF
:10023000642900F0BF82752900F0BC826F2900F0AC
:10024000F183782900F02F84E92900F08B83E429D9
:1002500000F08883F52900F08583EF2900F0EE8314
:10026000F82900F02E840368DB0928BF41F08001E3
:10027000632901F08A81732901F08F81E32901F05C
:100280009A81F32901F09F81002070471FB506F085
:100290007DFA9DE8030000F0F5F901F0F1F90400A2
:1002A0000020002106F05CFA401C60600020002164
:1002B00006F040FAE0601FBD10B510BD01F0B3F9C3
:1002C0001146FFF7E3FF05F083FA01F08FFA03B45C
:1002D000FFF7F2FF03BC01F0BFFA000009488047B6
:1002E00009480047FEE7FEE7FEE7FEE7FEE7FEE718
:1002F000FEE7FEE7FEE7FEE704480549054A064B30
:1003000070470000354E000889010008100E0020DB
:1003100010140020101000201010002070B50646A8
:1003200000F094F9056806F10B0020F00704B442D0
:100330009CBF002070BD2B466A68BAB11068A0420D
:1003400010D304F1080188423CBF5068586007D3BD
:100350005168101941601168091B016058601460F0
:10036000101D70BD13465268002AE7D12146284669
:1003700000F074F90028DED170BD70B50446051F89
:1003800000F064F90068002C14BF446870BD002CB4
:1003900018BFAC423CBF20466468F8D301680A1815
:1003A000AA4218BF456003D12A680546114401607E
:1003B00028684119A1421CBF6C6070BD616869600A
:1003C00021680844286070BD53EA020C00F069807F
:1003D0002DE9F04B4FF00006002B1FBFB3FA83F559
:1003E00003FA05F424FA05F65E4012BF1643B2FA8A
:1003F00082F502FA05F4C5F120051EBF22FA05FCBC
:1004000044EA0C04203556EA044C4FEA144418BF61
:10041000641C4FF000084FF00009904271EB030C90
:1004200039D3002919BFB1FA81F701FA07F6B0FAFA
:1004300080F700FA07F6C7F120071EBF20FA07FC75
:1004400046EA0C062037B6FBF4FCA7EB0507103F85
:1004500007F01F0BCBF120062CFA06F60CFA0BFB6B
:1004600044BFB3460026202FA4BF5E464FF0000BCA
:100470005BEA060C08BF4FF0010B19EB0B0948EBC8
:100480000608ABFB027C06FB02CC0BFB03CCC01BBB
:1004900071EB0C01C1E70B46024641464846BDE8F8
:1004A000F08B13B5084318BF4FF0FF300146AFF390
:1004B0000080BDE81C4070477CB51D4616460C0008
:1004C000009001D02044401E074B7B442A466946D9
:1004D0000190304600F0C3F905461CB10020694682
:1004E00000F0D0F928467CBDC103000010B5431CC4
:1004F00002E010F8011B71B18107FAD14FF001320F
:1005000002C88C1A8C4314EAC211F9D0C01A0A0628
:1005100003D0C01E10BDC01A10BD0A0401D0801E39
:1005200010BD0902FCD0401E10BD032A40F23080ED
:1005300010F0030C00F0158011F8013BBCF1020F24
:10054000624498BF11F801CB00F8013B38BF11F8A5
:10055000013BA2F1040298BF00F801CB38BF00F8BC
:10056000013B11F0030300F08483083AC0F00880D7
:1005700051F8043B083A51F804CBA0E80810F5E71D
:10058000121D5CBF51F8043B40F8043BAFF3008000
:10059000D20724BF11F8013B11F801CB48BF11F875
:1005A000012B24BF00F8013B00F801CB48BF00F845
:1005B000012B70474FF000020429C0F0128010F0A8
:1005C000030C00F01B80CCF1040CBCF1020F18BF2F
:1005D00000F8012BA8BF20F8022BA1EB0C0100F0C2
:1005E0000DB85FEAC17C24BF00F8012B00F8012B95
:1005F00048BF00F8012B70474FF0000200B51346CA
:1006000094469646203922BFA0E80C50A0E80C5032
:10061000B1F12001BFF4F7AF090728BFA0E80C50E3
:1006200048BF0CC05DF804EB890028BF40F8042BDC
:1006300008BF704748BF20F8022B11F0804F18BF49
:1006400000F8012B704770477047704700487047AB
:1006500028000020704770477047704738B504463F
:100660000A4600206946AFF30080002808BF38BD65
:1006700002460099204600F033FB012038BD0120DE
:1006800000F0C9BFF8B5AFF30080054600200C4666
:10069000102000BF0646A819A0420DD9324669466F
:1006A0000020AFF30080070008BF00F0B4FF0098FF
:1006B000A04218BF0546C419FFF7C8FF05600746EA
:1006C000F01D20F007004619284600F00AF8B44251
:1006D00008BFF8BDA21B31463868BDE8F84000F0FD
:1006E000FFBA00210160C0E9011070471020704777
:1006F00070B5044685690068C10601D5302600E062
:100700002026C00707D070BDD4E9012130469047AC
:10071000206A401C20626D1EF6D570BD70B504467F
:1007200085690078C00707D170BDD4E90121202078
:100730009047206A401C20626D1EF6D570BD096886
:100740004A0501D540B27047C905FCD500B27047D3
:1007500009684A0501D5C0B27047C905FCD580B209
:10076000704770B50C460546012A05D028788006EA
:1007700000D5EA69002302E0012305E05B1C9342F7
:1007800002D2E05C0028F9D1A869E618C01AA86175
:10079000286A184428622846FFF7AAFF04E0D5E932
:1007A000012114F8010B9047B442F8D32846FFF713
:1007B000B5FF70BD2DE9F04106460024106875298B
:1007C000314616A510D0FFF7BAFF002802DA4042E2
:1007D00013A507E031688A0701D512A502E0490791
:1007E00004D511A5012401E0FFF7B2FF00210A2280
:1007F00006F1240709E0B0FBF2FCB0FBF2F302FBC8
:100800001C00303078541846491C0028F3D1234688
:100810002A463046BDE8F04100F0C1BA00000000B1
:100820002D0000002B00000020000000116802686D
:10083000006A530501D508700AE0D30501D5088088
:1008400006E0130603D5C217C1E9000200E0086004
:100850000120704701694A1C02610878704700B5A1
:100860008FB0CDE901310021059105497944CDE9E9
:1008700003101146684600F035F90FB000BD0000C6
:10088000E5FFFFFF0A6802F8010B0A607047D1E933
:1008900000239A4202D2531C0B6010707047000074
:1008A0002DE9FF5F15468A460446DFF8AC80F84420
:1008B0000027D8E900103E46CDE9001010E03AF8D4
:1008C00016106A4602A800F082FE411C07D021786B
:1008D000890603D5E269391891420DD80744761C80
:1008E0002078800602D5E069B84205DDAE42E6DB3D
:1008F0003AF816000028E2D1A069C01BA06120468A
:10090000FFF7F6FED8E90010CDE90010002017E04F
:100910003AF818106A4602A800F059FEB0F1FF3FFD
:1009200081460BD000250DF1080B05E0D4E901212B
:100930001BF8050090476D1C4D45F7D308F10100E9
:10094000B0428046E4DB206A384420622046FFF74C
:10095000E5FE00F003B80000FE5E00003FBCBDE80D
:10096000C09F00002DE9F0418046D21D22F0070211
:100970000025D2E90002F52915A614D0011E72F156
:10098000000106DA0023D0EB030063EB020211A69C
:1009900008E0D8F800108B0701D50FA602E0490740
:1009A00001D50EA601251146002408F1240704E014
:1009B00000F0B0F930323A55641C50EA0102F7D128
:1009C0002B46324621464046BDE8F04100F0E7B9EB
:1009D000000000002D0000002B000000200000009F
:1009E00030B4002100F1240408E002F00705D20829
:1009F000303542EA4372DB086554491C52EA03056C
:100A0000F3D10468002310A2250708D504F02004C0
:100A10000C4304D0C46901230CA2641EC46130BC21
:100A200000F0BDB910B5044621461068FFF790FEEE
:100A300002462046BDE810400023D1E7D21D22F037
:100A40000701D1E90023CBE70000000030000000DF
:100A5000F0B40D460188090502D5214C7C4402E022
:100A60001F4C7C440E34002100F1240608E002F003
:100A70000F071209E75D42EA03721B097754491C0C
:100A800052EA0307F3D102780023120704D5702D30
:100A900006D009B1022311342246F0BC00F07FB920
:100AA00001231034F8E770B504460D46214610685E
:100AB000FFF74EFE024629462046BDE8704000235F
:100AC000C6E7D21D22F00703D3E90023C0E703687D
:100AD000126843F0200303600823C3610023B7E7D3
:100AE000585D00002DE9F05F894604464FF0000A8A
:100AF000DFF874B1FB44C0F820A02046E1688847C5
:100B0000002874D0252806D0D4E901219047206A16
:100B1000401C2062F1E700265F462046E1688847D6
:100B20002028054607DB312D05D2781910F8200C56
:100B300008B10643F1E7B00701D526F00406C4F872
:100B40001CA00027C4F818A02A2D09D0284605F0BB
:100B5000E9FD38B304EB8708303DC8F8185019E0B8
:100B600059F8041B204604EB87029161E16888472D
:100B7000012F054618D1E069002820DA26F020066A
:100B80001DE0D8F8180000EB800005EB400030387D
:100B9000C8F818002046E1688847054605F0C2FD00
:100BA0000028EED1012F0AD02E2D08D12046E16871
:100BB00088477F1C0546022F46F02006C4DBA0694B
:100BC000002803DA404246F00106A061F00701D098
:100BD00026F010066C2D0BD0682D09D04C2D39D085
:100BE0006A2D35D0742D35D07A2D33D016E038E00B
:100BF000E1682F4620468847B842054609D16C2F48
:100C000026D04FF48060E1680643204688470546B9
:100C100004E06C2F1AD04FF4807006430DB3A5F199
:100C20004100192802D8203546F400664A46294674
:100C3000204626604E46FFF7E1FA80B101280BD02E
:100C4000F61D26F0070000F1080956E74020E4E70A
:100C50008020D8E70020D6E706F104094DE72846B2
:100C600052E7206A00F002B8E85C000030BCBDE842
:100C7000C09F10B5203AC0F00B80B1E81850A0E832
:100C80001850B1E81850A0E81850203ABFF4F5AF5A
:100C90005FEA027C24BFB1E81850A0E8185044BFB6
:100CA00018C918C0BDE810405FEA827C24BF51F823
:100CB000043B40F8043B08BF7047D20728BF31F817
:100CC000023B48BF11F8012B28BF20F8023B48BF68
:100CD00000F8012B704700000048704720000020FA
:100CE000034640688C46002818BF88423CBF034634
:100CF0004068F8D318681844884207D00CF1030004
:100D000020F00700001D411A521A0146081D0A6012
:100D1000FFF733BB30B5B0F10A0271F100034FEABF
:100D2000900E4EEA817EB0EB0E0061EB91014FEA2E
:100D3000101E4EEA017E10EB0E0041EB11114FEA3E
:100D4000102E4EEA016E10EB0E0041EB11214FEA1E
:100D5000104E4EEA014E10EB0E0041EB11414018CF
:100D600041F100014FEAD00040EA41704FEAD10161
:100D70004FEA810444EA907410EB800544EB0104CF
:100D80006D1944EB0404521BA3414FF0000348BF0C
:100D90000A3200D530BD401C41F1000130BD2DE9C3
:100DA000F0470D4699469246044600F12408016832
:100DB000880604D5E06921F01001216000E00120DF
:100DC000A84201DD471B00E00027A1697A1902EB68
:100DD0000900081AA0612078C00602D42046FFF757
:100DE00087FC002608E0D4E901211AF806009047A4
:100DF000206A401C761C20624E45F4DB2078C00639
:100E00000AD52046FFF774FC06E0D4E90121302022
:100E10009047206A401C2062381EA7F10107F4DCCD
:100E200007E0D4E9012118F805009047206A401C2A
:100E30002062281EA5F10105F3DC2046FFF76EFCB9
:100E40002078000602D50220BDE8F0870120FBE7EC
:100E50002DE9FF4F0C461E464FF0FF378BB0D2E90D
:100E60000001DDF860800A908A46C1F30A5505B991
:100E70003D46002108464FF00000BAF1000F00F493
:100E8000400005DA00EB80004FF4400101EA500019
:100E90004FEA9059B9F1010F00DDB9460A9850EABE
:100EA0004A000ED044F61050A5F2FF3545432F14EA
:100EB000B8F1000F1ED07542291E1EDDC9F10002D7
:100EC0001CE0B8F1010F4FF0000001D0302103E029
:100ED000F24305E02154401CB042FBDB30460022C7
:100EE000002121540B99C1F80880C1E900200FB0FE
:100EF00000F0BCB9BD1B6D1CDEE74A4600DA694252
:100F000006A800F001FC06AB93E8070003AB83E8FA
:100F1000070050460A9905F025F88DE80700A0F56E
:100F200000501F3800900398002D0ADD42F21F0187
:100F30004A460844002303A90390684605F08EFA48
:100F400009E0A0F500504A461F38002303A903908A
:100F5000684605F098FA8DE807000004000C03D0FD
:100F60004FF0FF30410800E01046B8F1000F03D009
:100F70000022009215461EE0751E05D4FFF7CAFE3A
:100F8000303262556D1EF9D5B3460122084302D0B6
:100F900000227F1C04E02078302801D100227F1E2F
:100FA000002A099784D01DE0112D07DAFFF7B2FE61
:100FB000303262556D1C50EA0102F5D1084302D06F
:100FC0000098C8B10EE00021681E05E0235C625C59
:100FD00063542254401E491C8142F7DBAB46A81BD8
:100FE000401E0990002004F80B000B98099AC0F8E5
:100FF0000880C0E9002B7AE711264FF0000857E778
:101000002DE9F04F88460446D21D22F0070191B029
:10101000D1E90001CDE90A0105F06CFB02460B980D
:10102000C00F01D02D2007E02068810701D52B20BB
:1010300002E0202101EAC000032A099001D0072A1A
:1010400005DB03464146204600F01EFB0BE12078FD
:10105000800601D5E06900E00620B8F1650F814601
:1010600006D0B8F1660F18D0B8F1670F70D131E033
:101070000020B9F1110F009001DB112301E009F10B
:1010800001030AAA01A90CA8FFF7E2FEDDE90C7032
:10109000002609F10105834647E001204B460090F8
:1010A0004FF000470AAA01A90CA8FFF7D1FEDDE91D
:1010B0000DB00C995D46002610B909F101000D181C
:1010C000B9EB050003D4C0F1FF3609F10105A5EB2A
:1010D00009002BE0B9F1010F01DA4FF001090020FE
:1010E000B9F1110F0090484601DD112300E00346DD
:1010F0000AAA01A90CA8FFF7ABFEDDE90C704D466A
:1011000000268346207800070AD4AB4500DA5D4606
:1011100001A8012D04DD411911F8011C302907D067
:101120004F4502DA17F1040F04DA012082460FE07E
:101130006D1EEEE7002F02DCED1B3E4403E0781C41
:10114000A84200DD7D1CB81B00F1010A4FF00047EA
:101150002078000703D4AA4501DB4FF0FF3A0021B5
:10116000B7F1004F0DF143088DF8431024D0022051
:101170002B23002F01DA7F422D230A21021EA0F12A
:10118000010000DC5FB197FBF1FC97FBF1F201FB82
:101190001C7C17460CF1300C08F801CDEEE7A8F1E5
:1011A000010003702188090501D5452100E0652172
:1011B000A0F1010800F8011C09980FA9A1EB08078C
:1011C000FF1D00B10120411901EBEA70A16938440B
:1011D000081A401EA0612078C00602D42046FFF7FE
:1011E00087FA099828B1D4E901219047206A401C68
:1011F00020622078C00622D52046FFF779FA1EE04B
:10120000002E04DBB34502DD01A8805D00E0302044
:10121000D4E901219047206A401C2062761CAAF183
:1012200001005FEA000A0AD100F02AFAC0680168EA
:10123000405CD4E901219047206A401C2062281EAE
:10124000A5F10105DCDC07E0D4E9012118F8010B68
:101250009047206A401C2062381EA7F10107F3DC8A
:101260002046FFF75BFA032011B041E630BCBDE831
:10127000C08F00002DE9F04F04460D46D21D22F02C
:10128000070089B0D0E900974846394605F032FAA0
:101290000246F80F01D02D2307E02068810701D511
:1012A0002B2302E0202101EAC0038DF820300BB18E
:1012B000012000E00020032A824601D0072A04DB37
:1012C0002946204600F0E0F93FE12078800601D46D
:1012D0000D2500E0E569C7F30A560D2D49DA002116
:1012E0004FEA175B08464FF00000002F00F4400063
:1012F00007DA00EB80004FF4400100EBD07001EA08
:1013000060008115012901DD4FF0FF3100224FEA15
:10131000850CBCF1180F06D31346ACF118004FF042
:101320008052C24003E04FF4801323FA0CF30CF117
:101330000C0CBCF1200F04D3ACF1200C09FA0CF01A
:1013400001E007FA0CF000294FF0004801DD18B960
:101350000FE00ED140450CD319EB02095F4121B9D2
:10136000404502D19F4329EA0209BBEB175F00D039
:10137000761C2088000502D57B48784402E07A4834
:101380007844193808AA302302F80A30037C0AF19D
:101390000101002E0AF1020A53546A4602DC4FF0A2
:1013A000300101E04FF031014FF001088DF80010DD
:1013B00002D0A6F2FF3603E059EA470100D06B4E97
:1013C000002D02DC2178090704D54FF002082E21F8
:1013D0008DF80110C44600210BE0C7F303433F0121
:1013E000C35C491C6D1E02F80830052908F101088C
:1013F00001DA002DF1DC00210CE000EB1973491C2F
:101400001B786D1E082902F808304FEA091908F107
:10141000010801DA002DF0DC21688B0602D516E008
:10142000A8F10108E04505DD02EB080313F8013CD3
:10143000302BF5D0B8F1000F09DD02EB080313F8EB
:10144000013C2E2B03D1090701D4A8F10108002D7E
:1014500005DD3E2102F808106D1E08F10108407CF0
:10146000002E02F8080008F1010804DA2D20764267
:1014700002F8080002E02B2002F808000A214FF4CD
:101480007A70864208F101080BDB96FBF0F33033EB
:1014900002F8083096FBF0F308F1010800FB136630
:1014A00001E0642E0CDB642096FBF0F3303302F88D
:1014B000083096FBF0F308F1010800FB136601E029
:1014C0000A2E06DB96FBF1F0303002F8080008F136
:1014D000010896FBF1F001FB1060303002F80800C3
:1014E000A16908F1010808EB050202EB0A00081ADD
:1014F000A0612078C00602D42046FFF7F9F8216ADF
:1015000008AE01EB0A00206204E0D4E9012116F8DC
:10151000010B9047BAF1010AF7D22078C00602D534
:101520002046FFF7E5F86E4609E016F8010B3E2865
:101530000FD0D4E901219047206A401C2062B8F105
:101540000108F2D22046FFF7E9F809B0032000F0C5
:101550000FB8206A2844206203E0D4E9012130203A
:1015600090476D1EEBD3F8E78654000002FCFFFFA6
:1015700030BCBDE8C08F10B5436913B1AFF3008034
:1015800001E0FFF7EEF8012010BD127800F1240110
:101590000A7000224A700122EDE711684FF0FF3215
:1015A000E9E710B5436913B1AFF3008001E0FFF73D
:1015B00077F9012010BD128800F1240182840022F5
:1015C000C2840122EDE711684FF0FF32E9E72DE90F
:1015D000F04116460C46054600F04AF8036893F8B9
:1015E0000101012807D0FF2C12D8185D80B101201D
:1015F0002C70BDE8F081D3F807013246214603F292
:101600000713C7182846BC46BDE8F04100236047D1
:101610004FF0FF30EDE710B500F0F6F8BDE81040F0
:1016200000F0EDB870477546FFF756FBAE46050073
:101630006946534620F00700854618B020B5FEF7EE
:101640005BFEBDE820404FF000064FF000074FF072
:1016500000084FF0000BAC46ACE8C009ACE8C0098C
:10166000ACE8C009ACE8C00921F007018D4670471D
:1016700010B500F005F8001D10BD00BFE5500000DA
:1016800000487047400000202DE9F0411F46044605
:1016900003260168072A01F4006004DB08B116A5DF
:1016A00005E016A503E008B115A500E015A521F099
:1016B00010002060A069C01EA0610FB1401EA06193
:1016C0002046FFF715F84FB1D4E90121384690477D
:1016D000206A401C2062C01C206206E0206AFAE7F3
:1016E000D4E9012115F8010B9047761EF8D2204667
:1016F000FFF714F8BDE8F0814E414E006E616E00B8
:10170000494E4600696E66002DE9F047814616464F
:101710008AB0354878440DC88DE80D0032487844C9
:10172000801C03AC0DC884E80D0041F69B300844D2
:10173000372190FBF1F290FBF1F5A5F1800501FB5B
:1017400012041B3C02D56442012000E00020DFF8B7
:1017500098A080460027FA44AAF1BE0A0EE0E007EE
:101760000AD03246684607EB470101230AEB8101A4
:1017700004F089FE8DE8070064107F1C002CEED178
:10178000194F7F44AE3F19E0E80715D007EB04106E
:101790000DF1180A90E80E008AE80E00C068F042C9
:1017A00001D1981908903246012306A903A804F034
:1017B0006AFE03AB83E807006D10641C002DE3D1C3
:1017C0004FF0010332466946B8F1000F03A802D07A
:1017D00004F044FE01E004F056FEC9E90001C9F836
:1017E00008200AB0BDE8F0877C51000010B504461F
:1017F000AFF300802046BDE81040FEF768BD00282A
:1018000001D000F029B8704710B5012805D000219B
:1018100003A000F027F8012010BD09A1F8E700009F
:1018200053494752544D454D3A204F7574206F66C9
:101830002068656170206D656D6F72790000000031
:101840003A2048656170206D656D6F727920636F15
:10185000727275707465640001491820ABBEFEE7B2
:101860002600020070B505460C460A2000E06D1CFB
:1018700000F050F835B128780028F8D102E0641C57
:1018800000F048F814B120780028F8D1BDE8704085
:101890000A2000F03FB8000030B44FF0013C50F88F
:1018A000042B51F8043BCCFA52F4D51A20D1FCB9E0
:1018B00050F8042B51F8043BCCFA52F4D51A17D146
:1018C000B4B950F8042B51F8043BCCFA52F4D51AB1
:1018D0000ED16CB950F8042B51F8043BCCFA52F4F9
:1018E000D51A05D1002CDAD030BC4FF0000070477B
:1018F00029BAB1FA81F111F01801D1F12000844028
:10190000F2D1CA40CB4012F0FF0213F0FF0330BC0B
:10191000D01A704708B569468DF800000320ABBEA9
:1019200008BD70B588B0044600260DF102050F2EE3
:1019300006D0204603F014FE25F816000136F6E71F
:10194000002001210E2811D00A460F2A0BD035F8AD
:10195000123035F810409C4284BF25F8103025F82D
:1019600012400132F1E701310130EBE705F10A00E5
:1019700000210022052905D030F8113001311A4428
:1019800092B2F7E70520B2FBF0F080B208B070BD6C
:10199000FEE70000014800F07EB800BFDC0900202F
:1019A000014800F078B800BF240A0020014800F088
:1019B00072B800BF94090020F0B585680468D0E9CA
:1019C0001060012700F01C00102D07FA00F0706075
:1019D0000846636008BF1046A06008BF0A46E26080
:1019E000F0BD7047012000F0C7B94FF4005000F07F
:1019F000C3B9402000F0C0B9EFF3108072B6FEE723
:101A000010B590F82510022914D10168D0E91023EF
:101A10000C6824F00E040C600C6824F001040C60C7
:101A200003F01C01012303FA01F15160002180F849
:101A3000253002E00421C1630121002280F8242026
:101A4000084610BDB0B590F8251002291CD10168D8
:101A5000826BD0E910340D6825F00E050D600D681D
:101A600025F001050D6004F01C014FF0010404FA9B
:101A700001F159604FF0000180F8241080F82540F2
:101A80002AB19047002102E00421C16301210846E8
:101A9000B0BDC06B7047F0B5D0E9101302680C6898
:101AA000156803F01C036E070ED504269E4016EA47
:101AB000040709D013689B0603D4136823F00403BA
:101AC00013604E60016B2BE0AE0714D502269E40DA
:101AD00016EA04070FD013689B0606D4136823F098
:101AE0000A031360012280F82520002280F82420B8
:101AF0004E60C16A14E02D0716D508259D402C4084
:101B000012D0146824F00E041460012202FA03F3C8
:101B10004B600021C26380F8241080F82520416BBF
:101B200011B1BDE8F0400847F0BD0000002854D0D6
:101B3000F0B5022100F108072A4D142280F8251083
:101B400027490368D0CF01F1080C8E46634538BFA2
:101B5000A1F5806138BF05F580651D44B4F5804F5F
:101B6000B5FBF2F24FEA820547F6F072C0E91015B4
:101B7000196821EA0201426941EA040141EA0601C9
:101B800041EA070141EA0201826941EA0201C269B0
:101B900041EA0201026A41EA0201196013D00EF122
:101BA000A801634505F01C034FF00F0438BFAEF5E4
:101BB00056710A689C40A2430A600A68446804FAA5
:101BC00003F31A430A6000210122C16380F8241044
:101BD00080F82520BDE8F04000E00121084670476C
:101BE00000040240F8FBFDBFB0B5044690F82400A5
:101BF00001281DD0012084F8240094F82500012834
:101C000013D1022084F825000020E06320680568D5
:101C100025F0010505602046FFF7CEFE2068226B07
:101C200001683AB141F00E010AE0002084F8240076
:101C30000220B0BD21F004010160016841F00A01F9
:101C40000160016841F0010101600020B0BD0000A9
:101C5000B0B5044600F084F905460548611C0078DB
:101C600018BF044400F07CF9401BA042FAD3B0BD79
:101C70000000002010B53A4C4FF40051204600F00F
:101C800064F928B904F50060402100F05EF938B32A
:101C900020464FF4005100F058F928B9314801218D
:101CA0000170C820FFF7D4FF04F50060402100F068
:101CB0004CF928B92B4801214170C820FFF7C8FF13
:101CC000294801682948006802F044F9284800784A
:101CD000012805D104F58060012100F036F900B13A
:101CE00010BD062000F082FC224C207A68BB201D2B
:101CF000A11D03F008F8012094ED030A94ED041AE5
:101D00002072A08802EE100AB8EE422AB4F914003C
:101D100003EE100AB8EEC33A00EE023ABDEEC30A73
:101D200010EE100A2080E08800EE100AB8EE400A9B
:101D3000B4F9160002EE100AB8EEC22A01EE002A2B
:101D4000BDEEC20A10EE100A60800F48012101604A
:101D50000F2003F08FFC0620BDE8104000F058BCB7
:101D600000080048830000200C000020080000202C
:101D7000100000208C04002003490A68024208BFBA
:101D800070470860FFF776BF140401402DE9FC4F4F
:101D9000674A07244FF0000B4FF0010A4FF00F0E77
:101DA0004FF00008904200F1384208BF06244FEA85
:101DB000B223062B38BF4FEAB224002200940C68ED
:101DC00034FA02F308BF00F0BDB80AFA02F314EACD
:101DD000030900F0A6804E6806F00304651E022D7C
:101DE0001DD20325D0F808C0D1F80CE005FA08F59B
:101DF0000EFA08F72CEA050C4FF00F0E47EA0C0715
:101E00008760C6F3001707FA02FC476827EA030356
:101E100043EA0C036FEA050C5500436016E0032CFF
:101E20000ED1C6F3C004C56A944025EA03034546B3
:101E300023430324C36204FA08F36FEA030C24E08B
:101E40000323454603FA08F36FEA030CC7688B685F
:101E5000022C07EA0C0703FA05F343EA0703C36001
:101E600013D16FF003060BF01C0306EA52060EFABC
:101E700003F40644376A27EA04040F6907FA03F3F8
:101E8000234333624E6806F0030404FA05F3046842
:101E900016F4403F04EA0C0443EA0403036040D014
:101EA000264C244F22F0030523683D4443F00103F0
:101EB0002360236803F0010301930BF00C03019EE0
:101EC0000EFA03F41E4EB446AE5926EA0404009EF0
:101ED00006FA03F3234345F80C30BB684D6843EA28
:101EE0000904EE0258BF23EA0904134BBC60AE029A
:101EF0009C461B6843EA090458BF23EA0904CCF84E
:101F00000040AE037B6843EA090458BF23EA090492
:101F10007C60ED033B6843EA090458BF23EA0904E7
:101F20003C600BF1040B08F10208013247E700BFE7
:101F300000180048000401400C04014060100240F9
:101F400008FCFFFF1CBCBDE8E08F0069084018BF1B
:101F5000012070471823002A08BF2823C15070476A
:101F600001480068704700BF0C0E002090F8412027
:101F7000202A03D190F84020012A01D1022118E043
:101F8000242280F841200268136823F001031360C3
:101F9000136823F4805313601368194311601168A8
:101FA00041F0010111600021202280F8401080F8EA
:101FB00041200846704790F84120202A03D190F82C
:101FC0004020012A01D1022117E0242280F841207B
:101FD0000268136823F001031360136823F470632D
:101FE00043EA01211160116841F0010111600021F3
:101FF000202280F8401080F8412008467047406C4D
:10200000704790F84100704710B3B0B5044690F89F
:10201000410028B9002084F84000204600F05EFA14
:10202000242084F84100D4E90003D4E902120568B1
:1020300023F07063012A25F00105056003618368C0
:1020400023F40043836005D141F40041816009E03D
:102050000120704741F40441022A816004BF4FF41B
:102060000061416041680F4A04F11005114341606D
:10207000C16821F40041C1602ECD114341EA032122
:10208000C160216A29430160016841F001010160DA
:1020900000202021606484F84110206384F842000D
:1020A000B0BD00BF008000022DE9F843044690F85F
:1020B0004100202803D194F84000012803D10227D1
:1020C0003846BDE8F88301271E461546884684F841
:1020D0004070FFF745FF8146009020464FF40041D5
:1020E0000122192301F056FE0028E9D1222084F8AC
:1020F0004100102084F8420000206064668560631F
:102100006562F248618DB1F5807F06D3FF21FF2221
:102110004FF080732185009005E0618D4FF00073D2
:1021200021850090CAB22046414601F01DFE089F5D
:102130000025FF26608DC8B3204639464A4601F087
:1021400059FEC8BB2068616A406A0870608D01381A
:102150006085606A01306062208D411E218509041E
:10216000608DE7D10028E5D02046802100223B4643
:10217000CDF8009001F00EFEF0B9608DB0F5807FD3
:1021800021BF268500952046414627BFFF224FF0FC
:102190008073608D20853FBF0095C2B220464146C6
:1021A00038BF4FF0007301F0DFFDC3E7204639462A
:1021B0004A4601F063FE08B1012781E7206820212B
:1021C000C34B0027C16142681A40426084F8411045
:1021D00084F8407084F8427072E700BF2DE9F8433C
:1021E000044690F84100202803D194F840000128CB
:1021F00003D102273846BDE8F88301271E4615465D
:10220000884684F84070FFF7ABFE81460090204678
:102210004FF400410122192301F0BCFD0028E9D14F
:10222000212084F84100102084F8420000206064DE
:102230006685606365623548618DB1F5807F06D340
:10224000FF21FF224FF080732185009005E0618D12
:102250004FF0007321850090CAB22046414601F03C
:1022600083FD089F0025FF26608DC0B320463946B8
:102270004A4601F027FEC0BB616A206811F8012BB5
:102280008262608D013860856162208D411E2185EA
:102290000904608DE8D10028E6D020468021002284
:1022A0003B46CDF8009001F075FDF0B9608DB0F5BA
:1022B000807F21BF268500952046414627BFFF220B
:1022C0004FF08073608D20853FBF0095C2B22046DD
:1022D000414638BF4FF0007301F046FDC4E7204689
:1022E00039464A4601F0CAFD08B1012782E7206855
:1022F0002021774B0027C16142681A40426084F870
:10230000411084F8407084F8427073E70020008028
:102310002DE9F84F044690F8410020280DD1DDF852
:1023200028B0BBF1000F0AD0DDF82C80B8F1000F07
:1023300005D094F84000012806D1022516E04FF49C
:1023400000706064012511E001251E4617468A468B
:1023500084F84050FFF704FE8146009020464FF479
:1023600000410122192301F015FD10B1284600F0AB
:10237000B1B822200C990025F2B2002384F8410064
:10238000402084F8420051486564C4F824B0656375
:10239000A4F82A80884651468346A0F580600090C4
:1023A000204601F0E1FC204641464A4601F08AFD04
:1023B000B0B9012E08D02068390A4A468162204609
:1023C000414601F07FFD58B92068F9B2002243462A
:1023D000816220464021CDF8009001F0DBFC10B175
:1023E00084F84050AEE7608DB0F5807F09D3FF20C0
:1023F0005146FF224FF080732085CDF800B0204673
:1024000008E0608D51464FF000732085C2B220462F
:10241000CDF800B001F0A8FC0025FF2620460421DD
:1024200000224346CDF8009001F0B4FC00287FF470
:1024300089AF2068616A406A0870608D01386085E4
:10244000606A01306062208D411E21850904608D23
:1024500021D100B32046802100224346CDF80090D0
:1024600001F098FC00287FF46DAF608DB0F5807F9F
:1024700007D32685009520465146FF224FF08073F2
:1024800007E0608D51464FF000732085C2B22046B0
:10249000009501F069FC608D0028BFD120464146BF
:1024A0004A4601F0EBFC00287FF44CAF2068202165
:1024B000074B0025C16142681A40426084F8411010
:1024C00084F8405084F8425050E700BF0024008058
:1024D00000E800FE18BCBDE8E08F000010B586B033
:1024E000044601A81421FEF787F8206813498842A2
:1024F00021D1134C01A9206840F00200206020681F
:1025000000F00200009004200590032004900120B8
:102510000390122002904FF44070019000980948F7
:10252000FFF734FCE06840F40010E060E06800F47D
:1025300000100090009806B010BD00BF005400408D
:102540004C100240000400481B48034900780A6808
:1025500010440860704700BF0C0E002080B50320B7
:1025600000F080F8002000F007F808B1012080BDDD
:1025700000F024F8002080BD70B50F4E044630787E
:10258000B0B14FF47A71B1FBF0F056490968B1FB74
:10259000F0F000F09DFE01250F2C0AD848B94FF04D
:1025A000FF3021460022002500F040F8746000E072
:1025B0000125284670BD00BF0000002082B00A48F7
:1025C000816841F001018160816801F001010191A0
:1025D0000199016841F080510160006800F080506D
:1025E0000090009802B070475810024000280CD4A8
:1025F00000F01F010122400902FA01F1034A42F8EA
:102600002010BFF34F8FBFF36F8F704780E100E062
:10261000002808D400F01F010122400902FA01F14C
:10262000014A42F82010704700E100E070B5134BFA
:102630004FF0FF351B68C3F30223DC1E83F0070352
:1026400038BF0024042B28BF042305FA04F605FA3A
:1026500003F3B2439943A1401143BDE8704002F037
:10266000D9BF00BF05494FF6FF030A681A4060F35F
:102670000A22034810430860704700BF0CED00E0D9
:102680000000FA05F149B0F5007F0A6802F4C06263
:102690001DD1B2F5007F22D00868012262F34A20E2
:1026A000322208600F48006850430F4AB0FBF2F036
:1026B0000130421E4B69824203D213F480601046FF
:1026C000F7D14869400544BF0320704707E0B2F5E1
:1026D000806F04D00868022262F34A20086000205C
:1026E000704700BF1400002040420F00D748006828
:1026F00000F4C060704700BF2DE9FC4704464078F5
:10270000D14F000721D5606E4FEAB051032908D898
:10271000DFE801F002091216201D002102F042F943
:1027200006E0012612E004F12000002102F0C8F9C1
:10273000064658B9606E03E0396841F4803139606B
:10274000F96F21F440010843F86700266078C0065D
:1027500001D4B2462BE0A06E4FEA3060032809D8BE
:10276000B246DFE800F0020C1318201D002102F031
:1027700019F909E04FF0010A4FF0010818E004F1DF
:102780002000002102F09CF9824604E03868B2463D
:1027900040F480303860BAF1000FD04608D1A06E06
:1027A000F96F4FF0000A21F040710843F867B04616
:1027B000A078800701D4C24655E0F86CC0000BD465
:1027C000F86C4FF0010940F08050F864F86C00F0AC
:1027D00080500190019801E04FF000099B4D28685E
:1027E00040F480702860FFF7BBFB06462868C005F0
:1027F00007D4FFF7B5FB801B0228F7D94FF0030A77
:102800002AE0BAF1000F27D1D7F8840010F4407005
:1028100018D0D4F88410884211D0D7F88400D7F8A3
:10282000841041F4803120F44070C7F88410D7F848
:10283000841021F48031C7F88410C7F88400C007E1
:1028400040F0EF80D4F88400D7F88410C24621F419
:1028500040710843C7F88400B9F1000F03D0F86C49
:1028600020F08050F8642068C10705D0A16BFA6F92
:1028700022F003021143F967810705D5E16BFA6F76
:1028800022F00C021143F967410705D5216CFA6F5C
:1028900022F030021143F967010705D5616CFA6F28
:1028A00022F0C0021143F967C10605D5A16CFA6F89
:1028B00022F440721143F967810605D5E16CFA6F85
:1028C00022F440621143F967810505D5E16DFA6F85
:1028D00022F440221143F967410505D5216EFA6FB4
:1028E00022F440121143F967410605D5216DFA6FB4
:1028F00022F440521143F967010605D5616DFA6F64
:1029000022F440421143F967C10505D5A16DFA6F64
:1029100022F440321143F967810419D5E16EFA6F50
:1029200022F04062B1F1806F42EA0102FA6707D0FB
:10293000B1F1006F0CD1396841F48011396007E0C2
:10294000201D012102F02EF8002818BF82462068C1
:10295000010319D5216FFA6F22F04062B1F1806F47
:1029600042EA0102FA6707D0B1F1006F0CD1396871
:1029700041F48011396007E0201D012102F012F8B6
:10298000002818BF82462068410319D5616FFA6F8D
:1029900022F04062B1F1806F42EA0102FA6707D08B
:1029A000B1F1006F0CD1396841F48011396007E052
:1029B000201D012101F0F6FF002818BF8246206883
:1029C000400419D5A06FF96F21F04051B0F1005FBC
:1029D00041EA0001F96707D0B0F1805F0CD1201DFA
:1029E000022101F0DFFF04E004F12000022102F0E7
:1029F00067F8002818BF82462068010405D5E16FFA
:102A0000FA6F22F080421143F967C00306D5D4F86B
:102A10008000F96F21F000410843F867504600F04C
:102A200017B8FFF79DFA064641F288354FF0030AC2
:102A3000D7F8840080073FF505AFFFF791FA801BB8
:102A4000A842F5D908E700BF0C1002400070004012
:102A50000CBCBDE8F08700002DE9F843002800F029
:102A60009D80504D04468846286800F00700884243
:102A70000BD2286820F0070040EA08002860286888
:102A800000F00700404540F089802068554E10F066
:102A900002010AD0A268336803F0F0039A4204D915
:102AA000336823F0F0031A433260C20737D06068FE
:102AB000022806D0032809D156F8081C89010DD434
:102AC0006CE056F8081C890308D467E056F8081C27
:102AD00010B1490502D461E089075FD53168A94684
:102AE000354621F0030108433060FFF739FA064606
:102AF00041F2883729466068296801F00C01B1EB82
:102B0000800F07D0FFF72CFA801BB842F2D90320C0
:102B1000BDE8F88320682E464D4600F0020151B111
:102B2000A168326802F0F002914204D2326822F0C9
:102B3000F00211433160296801F0070141450AD9CB
:102B4000296821F0070141EA08012960296801F09C
:102B50000701414522D1410705D5E168326822F4D9
:102B6000E06211433160000706D52069316821F425
:102B7000605141EAC000306000F038F831680A4A1C
:102B8000C1F30311515C01F01F01C84014490860F2
:102B900006480068BDE8F843FFF7EEBC0120BDE839
:102BA000F88300BF00200240AC6800080400002049
:102BB0000B480C490C4A00680968C1F30221515CBA
:102BC00001F01F01C840704705480649064A0068E1
:102BD0000968C1F3C221515C01F01F01C840704770
:102BE0001400002008100240BC68000810B52349FA
:102BF0008A68C86812F00C0205D00C2A1FD100F0B8
:102C0000030001281BD108681F4B000747BF086855
:102C10000009D1F89400000A002A00F00F0053F8D0
:102C20002030184618BF00200C2A21D1C86800F0B7
:102C30000300022809D0032808BF124B06E0042A2B
:102C400017D0082A17D10F4810BD0D4BC868CA68A5
:102C5000C9680224C1F34161C2F30622C0F3021025
:102C60005A43013004EB4101B2FBF0F0B0FBF1F04C
:102C700010BD034810BD00200023D5E7001002401E
:102C80000024F40000127A00C46800082DE9F8431B
:102C9000002800F00D82E34E0446B06800F00C09F5
:102CA000F06800F003082078C00629D42078C00717
:102CB00077D0B9F1080F6DD0B9F10C0F08BFB8F19A
:102CC000030F67D06768B7F5803F07D03068B7F566
:102CD000A02F40F0278240F480203060306840F41C
:102CE00080303060FFF73CF905463068800358D4E7
:102CF000FFF736F9411B03206429F6D9BDE8F883B4
:102D0000B9F1000F1BD0B9F10C0F08BFB8F1010FDA
:102D100015D03068A169002900F0A28140F00100BF
:102D20003060FFF71DF905463068800700F1A98182
:102D3000FFF716F9411B03200229F5D9DEE73068B9
:102D4000800703D5A069002800F0B281206A3168AD
:102D500009075ABFD6F894100909316801F0F0014B
:102D6000884240F2D28001F02FFF002840F0A0817D
:102D7000306840F008003060D4E90701326822F082
:102D8000F00211433160716821F47F4141EA002073
:102D90007060CFE03068800303D56068002800F0E1
:102DA0008781207880072BD5B9F1040F1AD0B9F1AB
:102DB0000C0F08BFB8F1020F14D03068E168002989
:102DC00000F0798140F480703060FFF7C9F8054663
:102DD000306840050DD4FFF7C3F8411B03200229DA
:102DE000F6D98BE73068400503D5E068002800F08D
:102DF0005F812069716821F0F85141EA00607060DC
:102E0000207800075BD4207840076FD4A06A0028A0
:102E100000F0A581022840F0EF80E16AF06800F040
:102E200003028A4240F00081216B6FF00F0202EB37
:102E3000011100F070028A4240F0F680616B00F4EC
:102E4000FE42B2EB012F40F0EF80A16B00F40032A4
:102E5000073918BF01218A4240F0E680E16BE14A60
:102E600002EA015100F4C002A1F500118A4240F0CB
:102E7000DB80216C4FF07E4200F0C06002EA01610D
:102E800001F17E41884240F0CF803068800100F13E
:102E90006681306840F080703060F06840F080708B
:102EA000F060FFF75DF804463068800100F157815B
:102EB000FFF756F8011B03200229F5D91EE7D6F8C3
:102EC00094006169002900F0848040F00100C6F898
:102ED0009400FFF745F80546D6F89400800792D491
:102EE000FFF73EF8401B0228F6D96FE0B06DC00036
:102EF00034D4B06D4FF0010840F08050B065B06D33
:102F000000F08050009000982AE03168B9F1000F7D
:102F100041F008013160316821F0F00141EA00011F
:102F20003160E169726822F47F4242EA01217160F6
:102F300000F0B980FFF75AFEB168A64AC1F3031149
:102F4000515C01F01F01C840A3490860A348006814
:102F5000FFF712FB00287FF4D1AEA7E64FF0000880
:102F60009F4F3868C00510D4386840F480703860CE
:102F7000FEF7F6FF05463868C00506D4FEF7F0FFF9
:102F8000411B03200229F6D9B8E6A768012F08D013
:102F9000D6F89000052F40F09F8040F00400C6F85E
:102FA0009000D6F8900040F00100C6F89000FEF7BF
:102FB000D7FF054641F28837D6F89000800700F128
:102FC000A880FEF7CDFF401BB842F5D90320BDE82D
:102FD000F88320F00100C6F89400FEF7C1FF054613
:102FE000D6F8940080077FF50EAFFEF7B9FF411BBE
:102FF00003200229F4D981E6B9F10C0F58D03068CA
:1030000020F080703060FEF7ABFF0446306880012E
:1030100040F1A180FEF7A4FF011B03200229F5D98E
:103020006CE600BF00100240B9F10C0F40D03068D0
:1030300040015CBF30685FEAC00039D4306820F0DE
:1030400080703060FEF78CFF05463068800140F1EB
:103050008980FEF785FF411B03200229F5D94DE643
:1030600020F001003060FEF77BFF054630688007E6
:103070007FF51CAEFEF774FF411B03200229F5D932
:103080003CE6306840F008003060D4E9070132685F
:1030900022F0F00211433160716821F47F4141EA6E
:1030A0000020706002E601F08FFD00283FF442AF7F
:1030B0000120BDE8F88320F480703060FEF750FFF7
:1030C0000546306840057FF59BAEFEF749FF411B82
:1030D00003200229F5D911E620F00100C6F890007E
:1030E000D6F8900020F00400C6F89000FEF738FFF4
:1030F0000546002F7FF45EAF41F28837D6F8900086
:10310000800706D5FEF72CFF411B0320B942F5D9F5
:10311000F4E5B8F1000F3FF479AEB06D20F08050C7
:10312000B06573E620F480303060306820F4802091
:103130003060FEF715FF0546002F7FF4D6AD06E0A0
:10314000FEF70EFF411B032064293FF6D7AD306820
:103150008003F5D425E6F06825490840F06000209A
:10316000BDE8F88304F12C036FF00F051E4F0FCB61
:1031700005EB0111F5683D4028430843E16B40EA47
:103180000220184A02EA01514FF07E42A1F50011D7
:103190000843216C02EA016101F17E4108431349B1
:1031A00001EA43310843F060306840F080703060DD
:1031B000F06840F08070F060FEF7D2FE04463068A0
:1031C0008001CCD4FEF7CCFE011B03200229F6D9E6
:1031D00094E500BFAC680008140000200400002043
:1031E000007000400000E0FF8C809DF90000FEFFB1
:1031F000FCFFEEFE70B5B0B1044690F8210028B98E
:10320000002084F82000204600F03AF80220CA216D
:1032100084F821002068416253214162204601F078
:1032200015FD10B170BD012070BD94E80F00134E64
:1032300085683540856025692943A56929438568E6
:10324000294381600361016941EA0241016120462D
:1032500001F01EFD0028E5D120686169E269C36CB8
:10326000114323F00303C364C26C1143C164FF2103
:103270004162012084F82100002070BDBFFF8FFF54
:1032800000680549884200D070470448016841F44D
:1032900000410160704700BF0028004090100240CC
:1032A000B0B504460068C16821F0A001C160FEF716
:1032B00057FE05462068C068800607D4FEF750FE1A
:1032C000401BB0F57A7FF5D90320B0BD0020B0BD1A
:1032D000411E0020B0EB116F1CBF01207047044A53
:1032E000F023516003490B70072190601160704713
:1032F00010E000E023ED00E070B590F83C300222D1
:10330000012B36D080F83D2001221B4C80F83C2058
:10331000026855689368A24202D0184EB24203D1A7
:103320004E6825F4700535430E6825F07005B2F13E
:10333000804F45EA0605556010D0114DAA420DD0C8
:10334000104DAA420AD0104DAA4207D00B4DAA42F6
:1033500004D0364DAA4201D0A24204D1896823F09C
:103360008003194391600022012180F83C2080F8FD
:103370003D10104670BD00BF00340140002C0140DC
:103380000004004000080040000C004060B310B58D
:10339000044690F83D0028B9002084F83C002046FF
:1033A00000F024F80220211D84F83D00206801F07F
:1033B00049FD012084F8480084F83E0084F83F006D
:1033C00084F8400084F8410084F8420084F8430007
:1033D00084F8440084F8450084F8460084F84700E7
:1033E00084F83D00002010BD0120704782B00068C5
:1033F0000E4988420DD00E49884214D10D4801680B
:1034000041F010010160006800F010000190019887
:1034100009E00848816841F480318160806800F4E7
:1034200080300090009802B0704700BF004001401B
:10343000001000405810024010B590F83C2004469F
:103440000220012A6FD084F83D000120374B84F818
:103450003C00206882681A4082600A6812B3102A11
:1034600020D0202A1ED0302A1CD0402A21D0502A19
:103470002BD0602A35D0B2F5005F3ED0B2F5805F28
:103480004AD0702A50D1D1E90123C9681A4342EACF
:103490000121826822F47F4211438160816841F0FA
:1034A000770138E0816821F07001114341F0070194
:1034B00031E04B68CA68194601F028FD2068816830
:1034C00041F0470121F0300125E04B68CA681946F8
:1034D00001F01CFD2068816841F0570121F02001B6
:1034E00019E04B68CA68194601F021FD206881681F
:1034F00041F0670121F010010DE0D1E90123C96815
:103500001A4342EA0121826822F47F42114381601A
:10351000816841F4804181600020002184F83C10E2
:10352000012184F83D1010BD0120F6E78800FEFF60
:1035300070477047B0B50168826F0446C56F8868F0
:10354000212A1AD110F0800017D051E8020F21680B
:1035500020F0800041E802020AB12168F5E7E06E40
:1035600038B1FEF74DFA20B1E06EFEF792FA20284E
:103570001FD0204601F012FE21688A680020222D0B
:1035800002D112F0400201D1B0BD216851E8020F12
:10359000216820F0400041E80202002AF5D1206FA6
:1035A00060B1FEF72DFA48B1206FFEF772FA2028BD
:1035B00004D11020C4F880000320B0BD204601F0E3
:1035C000C6FD0020B0BD7047F8B50446006840F65F
:1035D0002F02C16901EA020502688668202D02F007
:1035E000200308D13BB1616E002900F02C812046F8
:1035F000BDE8F840084740F60F05294208D09F4D26
:1036000006F0010C8CF001072A424ED1002F4CD05D
:103610000A40D306236E39D5012B37D11021016220
:103620008168490600F1B080B4F85A10B4F8582007
:10363000B4F85A30002B00F00681511A0A0400F049
:10364000028150E8000F226820F4907042E80003E5
:103650000BB12068F5E7206850E8020F226820F0DF
:10366000010042E80203002BF5D12020E067002092
:1036700060662066206850E8000F226820F0100085
:1036800042E80003002BF5D189B2C1E0C90240F144
:10369000C48016F4800100F0C0804FF480110162F4
:1036A0002046BDE8F840FFF744BFCD0718BF12F42D
:1036B000807507D001250562D4F8805045F00105DA
:1036C000C4F8805001F00205012686EA55053D4305
:1036D00007D102250562D4F8805045F00405C4F8EE
:1036E000805001F0040586EA95053D4307D1042585
:1036F0000562D4F8805045F00205C4F8805053EAC2
:103700000C0318BF01230D0708D53BB10823036242
:10371000D4F8803043F00803C4F880300B050BD593
:1037200012F0806308D04FF400630362D4F8803055
:1037300043F02003C4F88030D4F88030002B00F030
:1037400082801140890604D5616E11B120468847F8
:103750002068D4F88010806801F0280100F0400053
:1037600040186AD0204601F0F2FC206881684906C2
:1037700075D550E8020F216820F0400041E80202B0
:10378000002A61D02068F4E7216F0A6853689DB26F
:10379000002D58D0B4F858108D4254D2A4F85A30A5
:1037A0001268920630D450E8000F216820F480702F
:1037B00041E800020AB12068F5E7206850E8020FEE
:1037C000216820F0010041E80202002AF5D12068BA
:1037D00050E8020F216820F0400041E80202002A70
:1037E000F5D12020E06700202066206850E8000F17
:1037F000216820F0100041E80002002AF5D1206F76
:10380000FEF7FEF8B4F85810B4F85A00081A81B25E
:103810002046BDE8F840FFF78BBE11060BD45106D9
:1038200011D550E8000F216820F0400041E8000267
:10383000D2B12068F5E7A16ED6E62046FFF7C3FEB9
:103840000020C4F88000F8BD206F40B10C498163AE
:10385000FEF7F8F80028F6D0206F816BC8E6204606
:10386000BDE8F840FFF7AFBE0020A0662020A067AB
:103870002046BDE8F84000F039B900BF200100043F
:103880005B50000810B5A0B10446806F28B9002035
:1038900084F87400204600F025F82420A0672068F2
:1038A000016821F001010160204601F085FC01283A
:1038B00001D1012010BD606A10B1204601F048FB23
:1038C0002068416821F490414160816821F02A011B
:1038D0008160016841F0010101602046BDE81040AF
:1038E00001F08BBB70B586B0044601A81421FCF72B
:1038F00083FE20685E49884240D05E49884275D088
:103900007849884240F0B1805B48016941F001018B
:103910000161016901F0010100910099016841F024
:10392000040101600121006800F0040000900820FB
:1039300003910221059003200490CDE9010101A922
:103940000098504800F58060FEF720FA4C4B4F4D30
:1039500000208021042203F58563C5E90032C5E912
:103960000200C5E90410C5E9060028622846FEF7F2
:10397000DDF808B1FEF740F846266CE03E48022626
:10398000C16841F40031C160C16801F400310091A7
:103990000099016841F00101016001A9006800F08F
:1039A000010000900720029605900320049001205A
:1039B00003900C20019000984FF09040FEF7E6F93C
:1039C0002F4A2E4D002080211432C5E90026C5E97A
:1039D0000200C5E90410C5E9060028622846FEF782
:1039E000A5F808B1FEF708F8262634E0224802269A
:1039F000416941F480414161416901F48041009194
:103A00000099016841F00201016001A9006800F01D
:103A100002000090072002960590032004900120E8
:103A20000390C020019000981648FEF7AFF9164D9C
:103A3000134A00208021C5E90026C5E90200C5E936
:103A40000410C5E9060028622846FEF76FF808B1A1
:103A5000FDF7D2FF2526304601210022AC62256702
:103A6000FEF7E4FD3046FEF7D3FD06B070BD00BFA3
:103A700000440040003801404C100240240A00205D
:103A80005800024000040048DC090020940900208E
:103A9000B0B5C36F202B06D1012329B122B190F814
:103AA0007430012B02D102231846B0BD00230D4C07
:103AB0000366012380F874300368A34202D05C6877
:103AC000240203D4BDE8B04001F068BC53E8003FD5
:103AD000046843F0806344E80035002DF2D00368A9
:103AE000F4E700BF00800040704770477047000057
:103AF0000146514800F00EBA1CB580208024FFF723
:103B0000F7FF01A8ADF8044000F06AF80F20FEF7B7
:103B10009FF81020ADF806000DF1060000F060F8E7
:103B20000A20BDE81C40FEF793B800002DE9FC47D1
:103B3000DFF88480214DDFF888900C4601214FF496
:103B40007A770DF107064FF0F50A8DF8070088F82F
:103B5000001028468021324601230097FEF73EFBE5
:103B600060B12846FEF74BFA04284FF4FA7018BFEC
:103B700089F800A002F01AF90028EAD00F4D0120C0
:103B80004FF47A76F42788F80000284681212246EF
:103B900002230096FEF788FA60B12846FEF72FFA56
:103BA00004284FF4FA7018BF89F8007002F0FEF88C
:103BB0000028EAD000F006B81900002040090020D3
:103BC000850000200CBCBDE8F087E0B50DF10601D2
:103BD0000020FFF7ABFFBDF8060000BA000C8CBD5B
:103BE0002DE9FC41134900880122134CDFF87C8D3C
:103BF0004FF47A760DF10505F3270A700221ADF82E
:103C000006008DF80510204680212A4603230096E1
:103C1000FEF7E4FA60B12046FEF7F1F904284FF40C
:103C2000FA7018BF88F8007002F0C0F80028EAD0D7
:103C3000BDE8FC811900002040090020FEE7006873
:103C40008169890744BF002181628169C90703D165
:103C5000816941F001018161704700002DE9F04761
:103C60008A460168044600278869C00601D40020FE
:103C700049E0102090460AF101064FF02009002586
:103C8000C861886900F02000284337D10025002E44
:103C9000F7D0FEF765F92168BAF1000F04D0A0EB68
:103CA000080000255045ECD94A6894F842308869EC
:103CB000202B0CD012F4804209D110F4004006D021
:103CC000486840F480404860FEF74AF98046002585
:103CD000216888698006D4D4FEF742F9A0EB080079
:103CE0001A28F5D3606C012540F02000606484F848
:103CF000419084F8407084F84270E9E70DB92020C3
:103D0000C861012004278A69D30505D54FF4807066
:103D100047F00107C8610120530504D54FF48060C6
:103D20000837C8610120920503D438B90020BDE8E6
:103D3000F0874FF4007047F00207C8612046FFF794
:103D40007EFF20684C4A416811404160606C3843F6
:103D50006064202084F84100002084F8400084F84A
:103D600042000120BDE8F08770B500686FF39F2125
:103D7000049D074E1943446841EA0241294324EA5D
:103D8000555421F0004134402143416070BD00BFD3
:103D9000009C00FC2DE9F843DDF820801D46164606
:103DA0000F4681465C1CD9F8000080693840C01B72
:103DB000B0FA80F04009B04219D1002CF3D0FEF7E0
:103DC000CFF81DB1A0EB0800A842ECD9D9F8440007
:103DD00040F02000C9F84400202089F8410000206C
:103DE00089F8400089F842000120BDE8F8830020EE
:103DF000BDE8F88370B515460E4604462068806914
:103E000040071FD4204631462A46FFF727FF80BBD4
:103E100020688169890610D4FEF7A2F816B1401B0C
:103E2000B042EBD9606C40F020006064002084F860
:103E30004000202084F841001BE08169490703D538
:103E4000218D09B1002070BD816900220A4DC9068B
:103E500042BF1022C2610422626420220021C2619A
:103E600043682B40436084F8412084F8401084F874
:103E70004210012070BD00BF00E800FE70B515467D
:103E80000E46044620688069800619D420463146D3
:103E90002A46FFF7E3FE88B9FEF762F816B1401B29
:103EA000B042EFD9606C40F020006064202084F8BC
:103EB0004100002084F8400084F84200012070BDD9
:103EC000002070BDF8B515460E4604464F1C20680C
:103ED000806980071BD4204631462A46FFF7BEFE84
:103EE00098B9002FF3D0FEF73BF816B1401BB04253
:103EF000EDD9606C40F020006064202084F841001F
:103F0000002084F8400084F842000120F8BD002021
:103F1000F8BD0000B0B50D460446FEF772F858B97A
:103F20000A49002201200A4B226284E82A00C4E9DF
:103F30000302C4E90522E2612046FEF765F8204647
:103F40000021BDE8B040FEF711B800BF00540040AA
:103F5000BC7D70100278012A0AD100220270087814
:103F6000032814D8DFE800F01102020200200DE05F
:103F70004278012A0BD100224270087818B101283A
:103F800001D0032803D1022000E00120087070470F
:103F9000B0B5104C1025206805620220FDF758FED0
:103FA000206840214FF4806201629B48011D204639
:103FB000FFF76EFD2068016841F0100101600562A5
:103FC000B0BD00BF80B501F0C3FB0248BDE8804032
:103FD000FFF7FABAC00A002010B50C480C4CA047F5
:103FE0000C480D490DA210A3A04712A0A0471248EB
:103FF000A04712A0A04718A0A0471FA0A04724A038
:10400000A0476420BDE81040FDF722BE0469000807
:10401000395600081F690008786900085365702048
:10402000323220323032330031343A34343A343997
:10403000000000000D0A0000096900082D2D3E2037
:10404000202D20456E74657220636F6D6D616E6406
:10405000204D6F64650D0A002D2D3E20202D20453A
:104060006E746572205472616E73706172656E74E5
:10407000204D6F64650D0A002D2D3E205072657332
:1040800073204B65793220746F3A200D0A000000CE
:104090002D2D3E20202D20456E7465722050726FAC
:1040A0006A65637420547261696E6E696E67204D33
:1040B0006F64650D0A000000BCB50020ADF8060075
:1040C0003848007802281CD0012824D010BB36487C
:1040D000017861B10021017050A001F0ADFA01201A
:1040E000022101F054FD0020002101F050FD3B4869
:1040F0000178E1B3002101704188043001F054FBE4
:1041000035E029480178022904D00221017027A056
:1041100001F092FABCBD24480178012917D0012191
:10412000017027A001F088FA782001F032FD002804
:10413000F0D0FFF74AFD4FF47A71274AB0FBF1F057
:104140000221ADF806000DF1060001F0ABFB234D96
:10415000287860B1224C20212046FDF7F6FE88B178
:104160000020A9781C4A2870281D01F09BFB2A48D2
:1041700001780029CED0002101704188043001F07F
:10418000D5FEBCBD28780028F1D020462021FDF7BF
:10419000DCFE0028EBD10020287012A001F04CFAC0
:1041A000E5E700BF18000020110000200D0A5B5059
:1041B000726F6A656374204D6F64655D0D0A00005F
:1041C0000D0A5B5472616E73706572616E74204D7E
:1041D0006F64655D0D0A0000040E0020A404002039
:1041E000000800482D2D3E205761726E696E673AB7
:1041F00020446F6E27742073656E6420646174615F
:10420000206E6F7721204D6F64756C652069732077
:1042100062757379210D0A00860000200D0A5B4348
:104220006F6D6D616E64204D6F64655D0D0A0000F9
:1042300001463E48FFF76EBE7CB53820FFF7F8FF19
:104240000DF107042A20214600F028F89DF8070008
:10425000114E214600F0FE008DF807002A20B047DD
:104260000DF106050E20294600F018F89DF806000D
:10427000294640F001008DF806000E20B0479DF859
:104280000700214640F001008DF807002A20B047C2
:104290000A20FDF7DDFC7CBDED4200082DE9FF4161
:1042A00005460D480D4E01270C464FF47A780770ED
:1042B000304638212A4601238DE89001FEF728F880
:1042C00040B14FF4FA7001F071FD0028F0D00448BD
:1042D000ED21017000F006B819000020080D002043
:1042E0008500002003BCBDE8FC8100007CB5097896
:1042F0003D4A0E4C01234FF47A760DF106058DF8F8
:10430000060013708DF80710204638212A46022334
:104310000096FDF763FF40B14FF4FA7001F046FDDF
:104320000028F1D03248ED2101707CBD080D00203D
:1043300001462E48FFF7EEBD10B50446C020FFF73A
:10434000F7FF204600F005F80A20BDE81040FDF711
:104350007FBC7CB570B121200DF107018DF80700FD
:10436000262000F021F80020282411268DF80700CF
:1043700027200DE0B8200DF1070126248DF8070055
:10438000262000F011F80720B9268DF80700132029
:104390000DF10705294600F007F8204629468DF85B
:1043A000076000F001F87CBD7CB509780E4A0F4C1F
:1043B00001234FF47A760DF106058DF8060013708F
:1043C0008DF807102046C0212A4602230096FDF7EB
:1043D00005FF40B14FF4FA7001F0E8FC0028F1D07D
:1043E0000348EF2101707CBD190000205C0D002006
:1043F00085000020BCB515489B4C0022016841F0A7
:1044000002010160016801F0020101910199016856
:1044100041F0010101600021006800F001000090FE
:1044200000980F20A047914D0F20A8471020002191
:104430000022A0471020A847452000210022A047C5
:1044400045202946BDE8BC40084700BF481002404F
:104450002DE9F04F87B000247F48804D804E012227
:104460004FF00109CDE90544016805F5806B41F085
:1044700010010160016801F01001019101990168CA
:1044800041F004010160016801F00401019101990A
:10449000016841F080010160016801F08001019133
:1044A0000199016841F001010160016801F0010119
:1044B00001910199016841F002010160016801F078
:1044C000020101910199016841F008010160082190
:1044D000006800F00800019001985846B0474FF07E
:1044E000904003210122B0474FF090404FF4B66155
:1044F0000022B047284647F60E410022B04705F596
:1045000040684FF6837100224046B04705F5006AC7
:104510004FF6807100225046B0474FF4041002AFAE
:10452000504E04944FF404150390402039460290F5
:104530004046B0474FF40050CDE90354394602904D
:104540005846B0470325082039460595CDE9039420
:1045500002905846B04740F203100595CDE9039408
:10456000394602904FF09040B0474FF49660059462
:10457000CDE90394394602904FF09040B047402077
:10458000CDE90344394602904FF09040B0473020C7
:10459000CDE90344394602905846B0472F4D0620D6
:1045A0000594CDE90394394602902846AB46B047BE
:1045B00003254FF6827039460595CDE903940290A4
:1045C0004046B04747F608400595CDE90394394683
:1045D000032502905846B0474FF47F400595CDE93A
:1045E0000394394602905046B0474FF404100494A7
:1045F0003946CDE902905046B04702203946CDE910
:104600000340042002905046B04780200594CDE935
:104610000394394602905046B04740463946CDE9AA
:104620000444CDE90299B0470F4C06200121002235
:10463000A0470E4D0620A847172001210022A047C1
:104640001720A847282001210022A0472820A8479A
:1046500007B000F00DB800BF4C1002400004004845
:10466000551F00088D1D00082D2600081126000882
:1046700030BCBDE8C08F000010B5124C124A134B7D
:1046800001200021C4E90032C4E9021004F1100045
:104690001421FBF7B1FF2046FDF7B6FC08B1FDF78A
:1046A000ABF908480021FDF761FC08B1FDF7A4F95A
:1046B00004480021FDF77FFC18B1BDE81040FDF76C
:1046C0009BB910BD6C0A0020EC9C90100054004077
:1046D00010B50B480B4C00210C224FF41653C0E9C7
:1046E0000811C0E90043C0E90211C0E90412816168
:1046F000FFF7C8F818B1BDE81040FDF77DB910BD4F
:10470000C00A00200080004010B50A480A4C002171
:10471000FF227F23C0E90041C0E90232C0E9041151
:10472000C0E90611FEF766FD18B1BDE81040FDF7BF
:1047300063B910BD440B00200028004080B588B04C
:104740001648174B00214FF6FF720791CDE905116E
:10475000CDE90311CDE90111C0E90031C0E9021230
:10476000C0E904118161FEF711FE08B1FDF744F9BB
:104770004FF4805004A904900848FEF75DFE08B18C
:10478000FDF73AF9002001A9039001900348FEF7D4
:10479000B3FD08B1FDF730F908B080BD680B00200B
:1047A000004001401FB50E480E4A00244FF6FF712D
:1047B0000394CDE901448461C0E90024C0E90241C9
:1047C000FEF7E4FD08B1FDF717F9054801A90394C8
:1047D0000194FEF791FD08B1FDF70EF91FBD00BF72
:1047E000B40B00200010004010B50C480C4C4FF4E6
:1047F000165300210C22C0E90043C0E90211C0E9B0
:104800000412C0E90611C0E90811FFF73BF818B11E
:10481000BDE81040FDF7F0B810BD00BF000C00204F
:104820000038014010B50C480C4C4FF4E133002126
:104830000C22C0E90043C0E90211C0E90412C0E93A
:104840000611C0E90811FFF71DF818B1BDE81040C6
:10485000FDF7D2B810BD00BF840C0020004400401A
:10486000FEE7FEE780B50DA000F0E6FE0120022184
:1048700001F052FA4FF0904002210022FDF76AFB4E
:104880000F2001F087FA4FF0904002210122FDF73E
:1048900061FBC820BDE8804001F07CBA4E6F6465C2
:1048A00020686172642072657365740D0A000000EF
:1048B00001463A48FFF72EBB1CB58820FFF7F8FFEA
:1048C0000DF106040120214600F014F89DF80610B1
:1048D0000C2011F0060F60F31F1101F0C90008BF92
:1048E000011D8DF80610204600F042F80A20FDF761
:1048F000AFF91CBD2DE9FC41DFF86C80274D0C465B
:1049000001214FF47A770DF107068DF8070088F83A
:10491000001028468821324601230097FDF75EFCEF
:1049200040B14FF4FA7001F041FA0028F1D00F487D
:10493000F2210170194D01204FF47A7688F80000B9
:1049400028468921224602230096FDF7ADFB40B19F
:104950004FF4FA7001F02AFA0028F1D00348F1214F
:104960000170BDE8FC8100BF190000208500002017
:104970007CB50088094C01214FF47A760DF10505CC
:104980008DF80510ADF80600204688212A4603233D
:104990000096FDF723FC0028F6D17CBDB00D002069
:1049A00070470000F8B5844F04460D46F86880074C
:1049B00010D02168F86800F0030201208A427BD100
:1049C000002979D06068F968C1F302110131814290
:1049D0000AD11DE02068032808D002283AD0012817
:1049E00002D13968890708D40120F8BD39688903E4
:1049F0005CBF39685FEA4131F6D561686FF00F023C
:104A000002EB0111FA6822F0730210430843F860C8
:104A1000386820F080603860FDF7A2FA06463868F2
:104A2000000105D5FDF79CFA801B0228F7D93CE070
:104A3000A5B138696149012D1BD101F1B461226929
:104A40000840A16840EA01201C4901EA0251A1F591
:104A5000001119E039684905C6D5CEE7D4E902014D
:104A6000584A574B02EA41313A691A4042EA00205B
:104A70000AE00840A168626940EA01204FF07E41E7
:104A800001EA026101F17E4108433861386840F073
:104A900080603860FDF764FA05463868000106D486
:104AA000FDF75EFA401B0228F7D90320F8BDA06984
:104AB0003969084338610020F8BD00BF0000E0FFFD
:104AC000F8B53D4F04460D46F868800710D02168C0
:104AD000F86800F0030201208A426BD1002969D0F6
:104AE0006068F968C1F30211013181420AD11DE009
:104AF0002068032808D0022837D0012802D139685D
:104B0000890708D40120F8BD396889035CBF39687A
:104B10005FEA4131F6D561686FF00F0202EB0111D7
:104B2000FA6822F0730210430843F860386820F0F6
:104B300080503860FDF714FA06463868800005D5C5
:104B4000FDF70EFA801B0228F7D92CE0786985B1B1
:104B50001A4922690840A16840EA01204FF07E41CD
:104B600001EA026101F17E410CE039684905C9D5CD
:104B7000D1E713490840D4E9021240EA0120114963
:104B800001EA423108437861386840F0805038606B
:104B9000FDF7E6F905463868800006D4FDF7E0F930
:104BA000401B0228F7D90320F8BD606979690843E2
:104BB00078610020F8BD00BF00100240FF80FFF9BF
:104BC000FF80FDFF0000FEFFBCB51E4D04462868B7
:104BD000C0000FD4286840F080502860286800F09A
:104BE000805001900198FDF781FD296821F08051E6
:104BF000296001E0FDF77AFDB0F5007F06D1812C38
:104C000008D30120A02C88BF02200EE0802C03D9FD
:104C100003200AE0002008E0A4F17000802CB0FA24
:104C200080F04FEA501008BF022007490A6822F0BE
:104C3000070202440A60096801F00701081A18BF58
:104C40000120BCBD581002400020024070B504464F
:104C50000068C168490617D44FF0FF310026C160D3
:104C6000FDF77EF905462068032EC0680DD010F0D0
:104C700040000AD1FDF774F9401BB0F57A7FF2D9F4
:104C8000032684F82160EEE70026F0B270BD000034
:104C9000B0B5124D0446686820F08000686028684E
:104CA000800609D42046FEF7FBFA00280EBF00203C
:104CB000032084F82100B0BD286820F0200028607F
:104CC0002046FEF7EDFA18B1032084F8210000E039
:104CD0000020296841F020012960B0BD082800406B
:104CE00070B50546D0200C46FCF71BFE064690200A
:104CF000FCF717FE01460020642E21BF64292E8098
:104D00002180012070BD7CB50C4605460DF10600E2
:104D100001A9FFF7E5FF68B30DF102006946FFF74F
:104D2000DFFF38B3BDF80600BDF80210814203D89A
:104D300001F13202824205D888421BD800F13202CA
:104D40008A4217D9BDF80420BDF80030934203D839
:104D500003F13206964205D89A420BD802F1320688
:104D60009E4207D9084440082880D0184008208077
:104D700001207CBD00207CBD7047FDF7E5BB000035
:104D800010B5B8B027AC2421201DFBF735FC22A8B4
:104D90001421FBF731FC68468821FBF72DFC02202B
:104DA00007210122CDE9360035910A213392349151
:104DB000CDE9310010202C9227912B904FF4807078
:104DC0002A902046FDF762FF18B1EFF3108072B60B
:104DD000FEE70024032004212694CDE924442390F7
:104DE0000F20229022A8FDF737FE18B1EFF31080B4
:104DF00072B6FEE74FF40070149421904FF40060F7
:104E000013900B48CDE90E4400906846FDF774FC02
:104E100018B1EFF3108072B6FEE74FF40070FDF7A3
:104E200031FC18B1EFF3108072B6FEE738B010BD58
:104E3000630002000248016841F47001016070479C
:104E400088ED00E0B0B50268B0F1804F0ED0264B7F
:104E500098420BD0254B984208D0254B984205D05C
:104E6000244B984202D0244B984203D14B6822F045
:104E700070021A43B0F1804F17D01B4B984214D0E8
:104E80001A4B984211D01A4B98420ED01A4B9842A6
:104E90000BD0184B984208D0184B984205D0184BAD
:104EA000984202D0174B984203D1CB6822F440724B
:104EB0001A434D6922F080020B688C682A43026015
:104EC000114AC462836202444FEAB222072A07D819
:104ED000012303FA02F212F0E50F1CBF0969016316
:104EE00001214161B0BD00BF000400400008004046
:104EF000000C004000340140002C01400040014003
:104F0000004801400044014000D4FEBF10B5036AD0
:104F1000046A24F001040462846924F0F00444EA81
:104F20000212826123F00A021143016210BD036A7A
:104F300023F010030362836923F4704343EA0232CF
:104F4000036A826123F0A00242EA01110162704704
:104F500010B5416ACA0706D00268836A546824F40F
:104F60000034234353608A0706D50268C36A546835
:104F700024F48034234353604A0706D50268036B48
:104F8000546824F48024234353600A0706D502683A
:104F9000436B546824F4004423435360CA0606D587
:104FA0000268836B946824F48054234393608A06D8
:104FB00006D50268C36B946824F4005423439360BD
:104FC0004A0610D50268036C5468B3F5801F24F4B8
:104FD000801444EA0304546005D1436C546824F4FB
:104FE000C00423435360090606D50168806C4A68F3
:104FF00022F400221043486010BDBCB504460020D6
:10500000C4F88000FCF7ACFF05462068016809077A
:105010000BD56FF07E404FF4001100222B4600901C
:10502000204600F009FA70B92068006840070CD5E6
:105030006FF07E404FF4800100222B460090204606
:1050400000F0FAF908B10320BCBD2020A067E0679A
:10505000002084F874002066BCBD806A0021A0F89E
:105060005A10A0F85210FEF7AEBAB0B5846A2068A4
:10507000A26FE56F8168212A09D111F0800106D065
:105080000020A4F85200204600F088F820688068CC
:10509000222D08D110F0400005D00020A4F85A00BD
:1050A000204600F054F8D4F8800040F01000C4F816
:1050B00080002046BDE8B040FEF785BA0168806AEE
:1050C000096889062FD40021A0F85A10016851E818
:1050D000001F026821F4807142E80013002BF5D113
:1050E000016851E8021F026821F0010142E8021341
:1050F000002BF5D1016851E8021F026821F0400140
:1051000042E80213002BF5D12021C167016E01296D
:1051100009D1016851E8001F026821F0100142E83E
:105120000013002BF5D1016E012918BFFEF7DCBC7E
:10513000B0F85810FEF7FCB9806A016E012918BF5B
:10514000FEF7D3BCB0F858104908FEF7F1B9016872
:1051500051E8001F026821F4907142E80013002B0F
:10516000F5D1016851E8021F026821F0010142E80F
:105170000213002BF5D1016E012909D1016851E814
:10518000001F026821F0100142E80013002BF5D146
:105190002021C1670021416601667047016851E81E
:1051A000001F026821F0C00142E80013002BF5D176
:1051B000202181677047000070B50168044680684F
:1051C000674ED4E903320D681043E26935406669E1
:1051D0003043104328430860486820F44050184387
:1051E000604B4860A06999421CBF256A28438D68BE
:1051F00025F43065284388605B48814211D05B48C4
:10520000814212D05A48814213D05A48814214D068
:10521000994216D05848814249D1584859A500684A
:1052200013E05648006880080EE054480068000902
:105230000AE052480068800906E050480068000A09
:1052400002E04E480068800A4D4D00F0030055F81A
:1052500020505048994210D00121B2F5004F1AD188
:10526000082D00F27780DFE805F0054049754375A9
:1052700075754700FDF79CFC3CE00121082D00F20C
:105280006980DFE805F005671C67166767671A0025
:10529000FDF78EFC0FE0082D5CD8DFE805F0054235
:1052A0004B5B455B5B5B4900FDF782FC3EE01025F4
:1052B000CFE7FDF79BFC10B949E04FF4004062686E
:1052C000012102EB4203984244D31303984241D890
:1052D000010E0002002310EB520041F10001FBF728
:1052E00073F82D4AA0F540712DE0FDF76DFC01E04B
:1052F000FDF77CFC10B92AE04FF4004061684A08D1
:1053000002EB40004FF6EF72B0FBF1F0A0F110019C
:1053100091421ED84FF6F0710140C0F3420008449C
:1053200013E0FDF751FC01E0FDF760FC10B90EE061
:105330004FF4004061684FF6EF7200EB5100B0FB94
:10534000F1F0A0F11001914203D82168C86000215A
:1053500000E001210020C4E91900084670BD00BF2B
:10536000F369FFEF00800040004400400048004027
:10537000004C0040005000400038014088100240BE
:10538000F4680008010000000400000002000000B2
:10539000080000000024F400FFFC0F00F8B5002511
:1053A00004461346C0F88050A0F8582041652220DA
:1053B000E067206FB0B10A461C491D4E1D4FC0E981
:1053C0000B76C0E90D1521682431FCF70DFC48B1BE
:1053D0001020C4F88000002084F874002020E067CA
:1053E0000120F8BD206984F8745048B1206850E865
:1053F000000F216840F4807041E80002002AF5D1D6
:10540000206850E8020F216840F0010041E80202E4
:10541000002AF5D1206850E8020F216840F04000D2
:1054200041E80202002AF5D10020F8BD6B500008C7
:1054300039510008BD5000082DE9F843DDF82090EF
:1054400004460068984616460F4609F10105C169F1
:105450003940C91BB1FA81F14909B1421FD1002D70
:10546000F5D0FCF77DFDB9F1000F1BD0A0EB0800D3
:10547000484517D820680168490744BFC1695FEAF9
:105480000151E4D54FF40061016250E8000F21683A
:1054900020F4D07041E80002EAB12068F5E700206E
:1054A000BDE8F883206850E8000F216820F4D07030
:1054B00041E80002002AF5D1206850E8020F216877
:1054C00020F0010041E80202002AF5D12020A06767
:1054D00004F17C000EE0206850E8020F216820F003
:1054E000010041E80202002AF5D12020A067E06710
:1054F00004F18000002184F8741020210160032051
:10550000BDE8F8830148FEF75FB800BF000C00203B
:10551000B0B5114C1025206805620220FCF798FBFD
:10552000206840214FF4806201620648011D204638
:10553000FEF7AEFA2068016841F0100101600562D3
:10554000B0BD00BFA404002080B500F0C3FC024839
:10555000BDE88040FEF738B8840C0020FEE700006C
:1055600070B52B4E04464FF09040202100220025BC
:10557000B0474FF0904010210022B047204600F085
:105580002DF84FF0904020210122B0474FF090407D
:1055900020210022B04700218CB24FF090400F2D07
:1055A00015D820210022FCF7D5FC4FF09040202197
:1055B0000122FCF7CFFC4FF090404021FCF7C5FCE6
:1055C0006100012805F1010508BF0131E4E7102160
:1055D0000122FCF7BFFC200970BD00BF70B50C4E66
:1055E00004460025072D88BF70BDE0B28021C209A6
:1055F0004FF09040B0474FF0904020210022B0473C
:105600004FF0904020210122B04701356400E9E7C6
:10561000551F000810B5074C00F00F03044AB0F105
:10562000FF3F2344C8BF83180801187010BD00BF96
:1056300000E400E014ED00E083B0B0B5ADF2044D3D
:10564000044601ADCDF81414CDF81824CDF81C345F
:105650000DF214434FF48061284622460093FAF776
:105660002BFF284600F06EFC0DF2044DBDE8B04063
:1056700003B0704710B500EB8004FCF771FC00EB41
:105680004404FCF76DFC8442FBD110BDB0B54A1C4C
:10569000047884B10B7873B1013015463BB19C425C
:1056A00005D124B115F8013B10F8014BF6E7002BAA
:1056B000EED10138B0BD0020B0BD000070B5084E7D
:1056C0000C46054696213046FAF796FF28463146A5
:1056D00000F08EFB3019022100F004F8C0B270BD5A
:1056E000A808002010B50022E9B10378A3F1410415
:1056F000192C02D82033037003E0A3F130040A2CE4
:1057000003D3A3F16104192C0DD86FF02F0403EB20
:105710000212392B00F10100A1F1010188BF6FF0E5
:1057200056042244E0E7104610BD0278A2F161035E
:10573000DBB2192B01D8203A03E0202A01D1202224
:1057400002E001F8012B02780130002AEDD1704708
:1057500010B50E4C2068C169C90658BF10BD102194
:1057600001622046FDF7E6FEF74801214FF4806212
:105770000170216F09684968C1F580614180011D90
:105780002046BDE81040FEF783B900BFC00A0020E4
:1057900004490A681206FCD5888108684006FCD5D1
:1057A000704700BF1C800040B0B50C4605462CB1C8
:1057B00015F8010BFFF7ECFF013CF8E7B0BD10B5A1
:1057C0000446207818B1FFF7E3FF0134F9E710BD74
:1057D000FCF7C4FEFFF7D4FAFEF73AFEFEF70AFE26
:1057E000FEF776FFFFF700F8FFF71CF8FEF7DAFF89
:1057F000FEF78AFFFEF7A2FFFEF73EFF1420FCF73C
:1058000027FAFEF7C5FBFFF783FEFEF775F9FFF7F2
:1058100053F80120FEF790FDFEF70EFD4FF4FA70ED
:10582000FCF716FAFFF71EF8FEF7D6FBFEF744FC6E
:10583000FCE72DE9F0411C469046FFF727FF78B3BF
:1058400008F1010C002103461A78C2B198F80070E3
:10585000AFB10026654647B1BA4206D12AB115F864
:10586000017B13F8012F0136F5E757B1F2B2002A98
:1058700018BF013B08BF012631440133E4E7002291
:1058800000E0012282F00102CBB2B3FA83F35B099C
:10589000134305D110F8013B013904F8013BF3E74C
:1058A000BDE8F0812DE9F84F06460D46924686A0E8
:1058B00031462A46FFF7C0FEDFF82C9299F8020025
:1058C000072806D3002089F802004FF4967000F0F4
:1058D00077F9DAF8007047B1D7E90104FAF74DFD1E
:1058E0003846FAF74AFD2746F5E70020CAF80000D7
:1058F00099F80000002800F0B380002D00F0B3807C
:105900000120022100F008FA00200121002700F008
:1059100003FA00204FF47A7100F03EF9002800F0FD
:10592000A580DFF824823046294688F80070FFF70A
:105930003BFF01204FF47A71012400F02DF900287B
:1059400000F09980824D834E002089F802000020EB
:105950004EF6602100F020F9002800F09D80012023
:10596000642100F019F9347098F8000038B94FF448
:10597000967000F01BFA0028F6D098F80000012875
:105980000FD1B8F8021061B14FF0000B404600F89B
:1059900004BB00F0CBFADAF8000030B1834680682F
:1059A000FBE70020A8F8020032E00C20FAF7B6FC72
:1059B00088B13446B8F80260074606807EB13046AA
:1059C000FAF7ACFC786060B93846FAF7D6FC624862
:1059D000FFF732FE1AE06148FFF72EFE18E00020C4
:1059E00078600020B04207D208EB00017A6809799C
:1059F000115401303E88F5E70020B860DAF8000065
:105A000010B1CBF8087001E0CAF8007026460124F6
:105A100099F801001F2813D1032000F071F978B91B
:105A2000B8F8020009280BD84DA00121FFF746FE67
:105A3000012839D14FA02521FFF740FE89F8010048
:105A4000032000F05DF900283FF481AF022000F050
:105A500057F918B300204A4D012489F8010011E0DC
:105A6000022422A50EE0402425A50BE099F80200AF
:105A700008242AA503E099F80200344D20240130BF
:105A800089F802003F482146FFF7D6FD2846FFF778
:105A9000D3FD204600F078B81024F3E799F8010010
:105AA000013089F801000BE00020A9F800002F4820
:105AB000FFF7C2FD4FF4967000F096F889F80000E9
:105AC0002B4D0424DEE700BF2D2D73656E64206D21
:105AD0006573736167653A2025732D2D73697A6547
